:1000000027C04BC04AC049C048C000C746C045C011
:1000100044C043C042C041C040C03FC03EC00000D9
:100020000000360001020000040000000000000093
:100030000000380000000000370002020202020245
:1000400002020202010204081020200410089F0B83
:1000500011241FBECFE5D2E0DEBFCDBF10E0A0E689
:10006000B0E0EEE8FFE102C005900D92A436B107C2
:10007000D9F721E0A4E6B0E001C01D92AF3DB20780
:10008000E1F710E0C8E2D0E003C02197FE0177DF7E
:10009000C732D107D1F704D778CFB2CFE091DE01D4
:1000A000E13150F4EF5FE093DE01F0E0E453FE4F06
:1000B000808381E090E0089590E080E008952F92A1
:1000C0003F924F925F926F927F928F929F92AF92E8
:1000D000BF92CF92DF92EF92FF920F931F93CF9335
:1000E000DF93CDB7DEB7EC970FB6F894DEBF0FBE47
:1000F000CDBF162F682F70E090E080E0FCDD2BEA8A
:100100003AEA4AEA5DE3ABDE2B013C01812F90E045
:100110006EE070E00FDF8A5E9E4F6C019E012F5FE4
:100120003F4F790110E000E0F60161916F01180185
:10013000FFEF2F1A3F0A6F3F09F06FC02EED30E03E
:100140003CAF2BAF312C212C2016310609F48FC087
:100150009E012F5F3F4F3AAF29AFF12CE12CD12CFC
:10016000C12CE9ADFAAD4190519061907190FAAF18
:10017000E9AFF701EE0FFF1FEE0FFF1F21E030E0A8
:100180002C0F3D1FE20FF31F80809180A280B3806F
:1001900020E030E040E85FEBC301B2010DDD8823D1
:1001A00091F020E030E040E85FEBC501B40104DDF0
:1001B000882309F49FC0A3019201C501B4014BDE5D
:1001C00018160CF497C03FEFC31AD30AC016D10615
:1001D00041F6EE0CFF1CEE0CFF1C81E090E08C0F52
:1001E0009D1FE80EF91EF70180819181A281B381E4
:1001F000EBADFCAD81939193A193B193FCAFEBAFC9
:1002000080E090E0A0E8BFEBF70180839183A283B8
:10021000B383FFEF2F1A3F0A97CF70E090E080E0A2
:100220006ADD2BEA3AEA4AEA5DE319DEA3019201AC
:100230005FDC4B015C01E894B7F8C501B40128DD2F
:10024000072E000C880B990B56DD9B01AC01C501F4
:10025000B4014DDCF70161937193819391937F0118
:1002600081010E30110509F05FCF10E000E0C801F8
:10027000880F991F880F991F9C0122523F4F7901C7
:1002800020E030E040E85FE36091DE007091DF0045
:100290008091E0009091E1002BDCF7016083718395
:1002A00082839383000F111F000F111FF801EE517D
:1002B000FF4F80E090E0A0E8BFEB80839183A283B2
:1002C000B383EC960FB6F894DEBF0FBECDBFDF91BF
:1002D000CF911F910F91FF90EF90DF90CF90BF9043
:1002E000AF909F908F907F906F905F904F903F90D6
:1002F0002F900895760167CF17B8369A3699FECFBA
:1003000084B195B10895823089F018F4813051F0AC
:100310000895833019F0843009F008958CB58F7DED
:100320008CBD08958AB58F778ABD08958AB58F7D73
:10033000FBCFCF93DF9390E0FC01EC5BFF4F249168
:10034000865C9F4FFC0184918823C9F090E0880F60
:10035000991FFC01EC5CFF4FA591B491FC01E25D9B
:10036000FF4FC591D49161110DC09FB7F8948C9146
:10037000209582238C938881282328839FBFDF9137
:10038000CF910895623051F49FB7F8943C91822F39
:10039000809583238C93E8812E2BEFCF8FB7F89431
:1003A000EC912E2B2C938FBFEACF3FB7F89480911E
:1003B0006C0090916D00A0916E00B0916F0022B71B
:1003C00008B601FE05C02F3F19F00196A11DB11D11
:1003D0003FBFBA2FA92F982F8827BC01CD01620FEC
:1003E000711D811D911D42E0660F771F881F991FA7
:1003F0004A95D1F708958F929F92AF92BF92CF9274
:10040000DF92EF92FF924B015C01CFDF6B017C0129
:10041000CCDF6C197D098E099F09683E7340810508
:100420009105B0F321E0821A9108A108B10888EE85
:10043000C80E83E0D81EE11CF11C81149104A104B4
:10044000B10431F7FF90EF90DF90CF90BF90AF9065
:100450009F908F9008952FB7F894609168007091E5
:10046000690080916A0090916B002FBF0895E82F7A
:10047000F0E0EE0FFF1FE358FF4F80819181718301
:1004800060839C012F5031096217730744F0225E8C
:100490003F4F81E0261737071CF080E0089581E088
:1004A0000895982F990F990F990F2091BE003091C0
:1004B000BF002330310521F42091BD00211198E0C7
:1004C000E82FF0E0EB59FF4F8081890F08951F93CB
:1004D000CF93DF93E5E2F0E09491E5E4F0E0D4918E
:1004E000EBE3F0E0C491CC23B1F0182F992311F085
:1004F000892F09DFEC2FF0E0EE0FFF1FE25DFF4FC9
:10050000A591B4918FB7F894EC91111108C0D095D2
:10051000DE23DC938FBFDF91CF911F910895DE2BF7
:10052000F8CF1F93CF93DF93D82F24E0811101C020
:1005300023E030E0F901EC5DFF4F8491F901EC5BC1
:10054000FF4F1491F901E65CFF4FC49150E040E089
:10055000CC2391F08111D7DEEC2FF0E0EE0FFF1FDE
:10056000E25EFF4FA591B491EC911E2391E080E0F3
:1005700009F490E0492F582F2D2F30E0220F331F20
:10058000F901EC58FF4F808191818417950771F034
:1005900081E04115510509F080E02C583F4FF901E9
:1005A00051834083DF91CF911F91089580E0FACF6E
:1005B000C098C29AB29BFECF85E18A95F1F7000000
:1005C000C09A8AE18A95F1F700C09EB1892F8072A6
:1005D00095FD04C094E09093CB01089581E00895C7
:1005E000C29AC29BFECF8AE18A95F1F700C0C098FB
:1005F00085E18A95F1F70000C298C09A779905C005
:1006000083E08093CB0180E0089581E008958EB966
:100610008BE29AE19A95F1F700C08DB9B29BFECFBB
:1006200095E19A95F1F700008DB9769BF2CF8AE1BA
:100630008A95F1F700C08FB19FEF9FB9B89A0895DE
:10064000CF92DF92EF92FF920F931F93CF93DF939E
:10065000082F8091CB0181608093CB019091CC01D8
:1006600090FD03C082608093CB01BADF882319F12B
:10067000102FCCECD1E0DD24DA94CC24C3947E019D
:100680008FEFE81AF80A8091CB018370D1F1C298FC
:1006900088818FB980EFBBDFB8988EEFB8DF90917B
:1006A000CB0180FF15C0892F817090FF0DC081E0C4
:1006B0008093CB0180E0DF91CF911F910F91FF904C
:1006C000EF90DF90CF90089592E09093CB01F3CF1D
:1006D000892F8570843061F48091CC018160809392
:1006E000CC01C092CB017CDF811117C09AE0EDCF25
:1006F0009E7F9093CB01E701115009F0C0CF81E0BC
:10070000DACFB89880EF83DF8883113021F4DFB827
:100710008EEF7DDFF0CF1FB8FBCF102FCCECD1E0F8
:10072000EBCF8091DE011092CB018F5F89DF1092B9
:10073000DE01882319F03CDF811103C08091CB01D9
:10074000089580E00895CF93DF93EC018091C60176
:100750001092DE01880F8093CC0188819FDC898113
:100760009DDC8A819BDCDDDF80E0DF91CF91089505
:10077000CF93DF93EB019091C6011092DE01990FA8
:100780009093CC01880F880F880F88DC8D2F86DC32
:100790008C2F84DCDF91CF91C4CF2F923F924F9268
:1007A0005F926F927F928F929F92AF92BF92CF9201
:1007B000DF92EF92FF920F931F93CF93DF93EC01A1
:1007C0002A013B0120E030E048EC52E4CB01B201C9
:1007D00046DB5EDA072E000C880B990B8CDA20E0E2
:1007E00030E048EC52E4ECD94B015C018E01000F83
:1007F000111F000F111F02541E4FF801208031807D
:10080000B10190E080E075DA6B017C0120E030E01E
:1008100040E85FE3C301B201CFD918162CF1A7015C
:100820009601C501B4011BDB38DA7F70FE01EE0FC3
:10083000FF1FE254FE4F7287618781E0CD2B09F4E0
:1008400080E0DF91CF911F910F91FF90EF90DF90AB
:10085000CF90BF90AF909F908F907F906F905F9060
:100860004F903F902F9084CFF8016281738162197D
:1008700073097695679590E080E03BDA2B013C01A7
:1008800020E030E040E85FE3C501B40130D99B01CE
:10089000AC01C301B201E3DAA701960129D9C4CFA3
:1008A0001092DE0198E69093CC01F8DB3ADF8823C2
:1008B00019F090E080E008951092640089E680933A
:1008C000CC011092CB0183E0BBDE8823C1F070DE47
:1008D0008823A9F0E0916400A1E0AE0FB0E0A4533A
:1008E000BE4F8C9190E0EE5FE0936400982F8827D4
:1008F000F0E0E453FE4F2081820F911D0895809116
:10090000CB018111D6CFE6CF1F93CF93DF93182F62
:10091000C62FC6DFD92F682F792F812FA8DD882316
:1009200019F0CD2FC295CF708C2FDF91CF911F91F1
:1009300008950F931F93CF93DF93082F10E093E058
:10094000000F111F9A95E1F78091BE009091BF00B2
:100950008330910549F48091BD00882311F008E0AF
:1009600010E0C8E0D0E004C0C0E1D0E0892BC9F7B6
:10097000C00FD11F21978091C0009091C1008D7F41
:10098000019779F48C2FDF91CF911F910F910895EA
:10099000FE01EE0FFF1FE356FF4F808191810CC0D7
:1009A0002197C017D1076CF08091CF009091D000B3
:1009B000892B71F78C2F74DF029794F38C2F801B97
:1009C000E2CF80E0E0CF8091C2009091C300019718
:1009D00099F480E0AEDF8093720081E0AADF80931B
:1009E00073009091720090936500809366008091EF
:1009F000650080937800089510926500109266005B
:100A0000F6CF4F925F926F927F928F929F92AF92AA
:100A1000BF92CF92DF92EF92FF920F931F93CF93EB
:100A2000DF9300D000D000D0CDB7DEB7182F6D8394
:100A300081E037DD89832D81E22EF12C8091CF007A
:100A40009091D000EE0CFF1C892BD1F4822F28DF6F
:100A5000F701E356FF4F918380832091BE003091D0
:100A6000BF002230310509F0D2C0898119DF3981F8
:100A7000E32FF0E0EE0FFF1FE356FF4F91838083DB
:100A8000F701E356FF4F6081718190E080E031D93A
:100A900020E03CEF4FE756E493D82091C500309119
:100AA000C6004091C7005091C800D9D92B013C0124
:100AB0008091BE009091BF000297C1F44981E42F5C
:100AC000F0E0EE0FFF1FE356FF4F6081718190E071
:100AD00080E00FD920E03CEF4FE756E471D89B014E
:100AE000AC01C301B20104D82B013C01C090DE006F
:100AF000D090DF00E090E000F090E10020E030E0F6
:100B000040E85FEBC701B60157D8882309F459C004
:100B1000C301B201BDD8072E000C880B990BEBD88E
:100B20004B015C01AC019B01C301B201E0D72B0179
:100B30003C01A7019601DBD79B01AC015F772983BC
:100B40003A834B835C8301E0402F50E05E834D830A
:100B5000FA01EE0FFF1FEE0FFF1FE252FF4FC080A2
:100B6000D180E280F38020E030E040E85FEBC70115
:100B7000B60171D918160CF045C0A7019601C30142
:100B8000B201B5D76B017C01E894F7F829813A816D
:100B90004B815C81C701B6015ED918166CF58D8159
:100BA0009E81880F991F880F991F86529F4FFC01C5
:100BB0002081318142815381C501B40199D72B0134
:100BC0003C01B301A201812F90E026960FB6F89464
:100BD000DEBF0FBECDBFDF91CF911F910F91FF9070
:100BE000EF90DF90CF90BF90AF909F908F907F90CD
:100BF0006F905F904F90D1CD0F5FC982DA82EB8208
:100C0000FC82A2CF20E030E040E85FE3D5CFBC011A
:100C100090E080E06ED820E03CEF4FE756E4D0D77C
:100C20002091C5003091C6004091C7005091C80086
:100C300016D95ACF1F93CF93DF93C82FD0E079DE18
:100C4000182FFE01EE58FF4F8083811107C0CB594A
:100C5000DF4F1882DF91CF911F9108958091C200DC
:100C60009091C300009749F082309105E1F4FE01B4
:100C7000E059FF4F20812223C9F0FE01EB59FF4FBD
:100C80002081211770F0892B11F41082E3CFC05915
:100C9000DF4F888191E0892788832FEF210F208300
:100CA000D9CF2F5FFCCF81309105A1F4FE01EB5924
:100CB000FF4F208121110CC0019711F41083CACF7E
:100CC000C059DF4F888191E0892788839083C2CF04
:100CD0002150E5CF039709F0BDCF45D6CB59DF4F63
:100CE000212F30E02F5F3F4F032E000C440B550B9C
:100CF000C0D66883AFCF0F931F93CF93DF93082F96
:100D0000D0DB182FC82FD0E08091CF009091D00079
:100D1000CC0FDD1F892B39F4812FC2DDFE01E35694
:100D2000FF4F918380831FD624E630E040E050E0FF
:100D3000A0D6C356DF4F88819981029768F48091CD
:100D4000BE009091BF00019739F08091C000909152
:100D5000C10002970297D8F58091C4006817B8F5D2
:100D6000612F802F4EDE77DB6093790070937A00DD
:100D700080937B0090937C008091BE009091BF0097
:100D8000019729F140E050E0BA0181E090E005DDF3
:100D900040E050E060EA70E481E090E0FEDC209109
:100DA000C9003091CA008091790090917A00A09199
:100DB0007B00B0917C00820F931FA11DB11D809319
:100DC000DA009093DB00A093DC00B093DD00109379
:100DD0007800802FDF91CF911F910F912BCFFF9241
:100DE0000F931F93CF93DF93EC01F62E08811981A7
:100DF000C80110D6F81619F06F2DC80113D6CE0110
:100E0000DF91CF911F910F91FF9008951F920F9244
:100E10000FB60F9211242F933F938F939F93AF930D
:100E2000BF938091680090916900A0916A00B09191
:100E30006B003091670023E0230F2D3758F50196A2
:100E4000A11DB11D209367008093680090936900F5
:100E5000A0936A00B0936B0080916C0090916D003C
:100E6000A0916E00B0916F000196A11DB11D8093FD
:100E70006C0090936D00A0936E00B0936F00BF91D3
:100E8000AF919F918F913F912F910F900FBE0F9037
:100E90001F90189526E8230F0296A11DB11DD2CFF1
:100EA000CF93DF9300D000D000D01F92CDB7DEB734
:100EB00078948AB582608ABD8AB581608ABD83B71D
:100EC000826083BF83B7816083BF89B7826089BF37
:100ED00080B7826080BF80B7816080BF329A319ACC
:100EE000309A379A8CB580648CBD84E492E09093FC
:100EF000BF018093BE019093C3018093C2018EEA2B
:100F000096E09093C1018093C0019093C5018093B6
:100F1000C401C09AC29ABA9AB89A8FEF8FB98AE27E
:100F20008DB980EF8EB91092DE011092CC0186E06F
:100F3000B5D8F7DB1092DE011092CC018AE0AED872
:100F4000F0DB6AE070E080E090E055DA80E48983CD
:100F50001A8285E08B83CE010196F5DB6AE070E0B2
:100F600080E090E048DA80E589831A821B82CE0116
:100F70000196E9DBEEEBEE2EE1E0FE2E10E000E064
:100F8000C80148D590E08F3F910511F480E890E0CA
:100F9000023011050CF44DC1F7013697825D994F6F
:100FA000918380830F5F1F4FF4E0EF0EF11C04303C
:100FB000110531F740E050E0BA0190E080E0EDDB50
:100FC00040E050E0BA0181E090E0E7DB60E086E0DD
:100FD000B0D962E083E0ADD962E084E0AAD961E0F3
:100FE00081E0A7D981E090E0909375008093740030
:100FF00090937700809376001092720010927300A5
:1010000011E01093700010937100DDDC81E05FDA75
:1010100068EE73E080E090E0EED980E058DA6CD9B9
:10102000883E9340ACF417DA6093D1007093D200FD
:101030008093D3009093D40082E090E09093D0000E
:101040008093CF001093D5001093CE0081E03FDA5B
:10105000812C912C70E8A72E7FEBB72EC090DA0080
:10106000D090DB00E090DC00F090DD00C114D104F2
:10107000E104F104A1F0EFD9C616D706E806F90697
:1010800070F440E050E0BA0181E090E086DB10921D
:10109000DA001092DB001092DC001092DD00C090AC
:1010A000D600D090D700E090D800F090D900C114BD
:1010B000D104E104F10481F0CED9C616D706E806C2
:1010C000F90650F480E003DA1092D6001092D700AF
:1010D0001092D8001092D9000FD97C01DD24D3944E
:1010E000883E93400CF0D12CC090D5000091CF00E9
:1010F0001091D000CD10A1C0012B09F453C18091F3
:10110000CF009091D0009C0122503109223031054E
:1011100008F086C1FF24F3948230910509F4F12C84
:1011200004E412E0029711F00EEA16E080E0B8DB6A
:101130006C0181E0B5DB9D838C8303551109B801F7
:1011400090E080E0D6D52B013C010F2D10E0180176
:10115000220C331C910122543E4F3F832E83B60153
:1011600090E080E0C6D520E832E040E25CE377D64C
:10117000A3019201BDD46B017C01EC81FD81BF0113
:1011800090E080E0B6D520E033E040EC59E367D64C
:101190009B01AC01C701B601ABD47AD5EE81FF81CA
:1011A0007183608382E07CDB6C0183E079DB7C010E
:1011B0000E5F1F4F000F111F02541E4FB60190E02B
:1011C00080E097D520E832E040E25CE348D6A30116
:1011D00092018ED42B013C01B70190E080E089D5CB
:1011E00020E033E040EC59E33AD69B01AC01C30167
:1011F000B2017ED44DD5F80171836083B1016F5F78
:101200007F4F072E000C880B990B75D56B017C0165
:10121000BC01A60190E080E0C0DAB701A60181E040
:1012200090E0BBDAE0E0F0E0EF2B09F417CFE8D66E
:1012300015CF8C539E4FF701B3CE0DD9AB01BC0136
:101240008091D1009091D200A091D300B091D400B0
:101250004E96A11DB11D84179507A607B70708F084
:101260004BCF88EEE81683E0F80634F08091CE008C
:10127000882371F01092CE00D092D500ECD8609304
:10128000D1007093D2008093D3009093D40037CFD5
:101290000115110591F497DB8091CB008111ECCF02
:1012A0008091BE009091BF00039731F78091BD00FF
:1012B00091E089278093BD00DFCF0230110539F41A
:1012C000E3E0F0E0F093D000E093CF00D5CF03301F
:1012D000110509F059C06091BE01645C6E7F1A82ED
:1012E0001982CE0101967BDD6091C201645C6E7F44
:1012F00081E090E09A838983CE01019670DD609150
:10130000C0016E526E7F22E030E03A832983CE0125
:10131000019665DD6091C4016E526E7F1A83098368
:10132000CE0101965CDD70E060E080E121DA64E6E8
:1013300070E080E090E05FD870E060E081E118DA72
:1013400064E670E080E090E056D861E070E088E10B
:101350000FDA64E670E080E090E04DD870E060E085
:101360008AE106DA64E670E080E090E044D840E08C
:1013700050E0BA0190E080E010DA40E050E0BA01BD
:1013800081E090E00ADA1FDB66D8611571058105FE
:10139000910509F036D31092D0001092CF0080E072
:1013A00096D86ACFCC20E1F156D8AB01BC01809130
:1013B000D1009091D200A091D300B091D40080537D
:1013C000984FAF4FBF4F84179507A607B70740F553
:1013D0001092D6001092D7001092D8001092D90027
:1013E00031E03093CE0081E090E09093D000809384
:1013F000CF006DD86DE9E62E60E0F62E0DE710E027
:10140000D12C8D2D4DDAF701819391937F01F80155
:10141000819391938F01D394F0E1DF12F2CF6FCEDD
:1014200081E07FD88823B1F08091CB00882309F434
:1014300034C18091BE009091BF009C0121503109C0
:101440002230310508F029C1019709F00BC181E074
:1014500090E051DC80E065D8882339F190E080E0AD
:101460004ADC8091CB0081110BC08091BE0090912D
:10147000BF008130910509F051C181E090E03BDC73
:101480008091CF009091D000892B79F481E01FD812
:10149000E2D7625E7F4F8F4F9F4F6093D60070936D
:1014A000D7008093D8009093D9008091CF0090917D
:1014B000D000019709F0B6CE6091BE0080E024DA3A
:1014C00090E09093BF008093BE006091C20081E0E5
:1014D0001BDA90E09093C3008093C20082E0E0D9D1
:1014E0008C01BC0182E0C3D7882311F1B80190E0E0
:1014F00080E0FFD39B01AC0160E07CEF8FE796E4D6
:10150000F6D220E233E048EC5BE3A9D46B017C0126
:1015100020E030E0A9019FD420E030E040E05FE32C
:1015200087FD02C1C701B601E3D2B2D36093C40004
:101530006091C5007091C6008091C7009091C8006D
:10154000A7D3615083E0E0D9682F70E090E080E09D
:10155000D0D320E030E040E85FE3CAD26093C5001A
:101560007093C6008093C7009093C8006091C0003C
:1015700084E0CAD990E09093C1008093C00085E0D8
:101580008FD98C01BC0185E072D78823A9F0B801FE
:1015900090E080E0AED320E03CEF4FE756E410D37C
:1015A00020E030E04AEF54E45AD472D3625E7F4FB9
:1015B0007093CA006093C90086E072D98C01BC01A7
:1015C00086E055D7882339F081E00130104208F4D5
:1015D00080E08093CB00F090CC00E090CD008CE0D8
:1015E0005FD98C01BC018CE042D76F2D882321F09C
:1015F000C80166E575E0AFD46093CC0010E03DE033
:10160000C32EC10E8C2D4CD9D82E092F682F792FBF
:101610008C2D2DD7882309F48BC08D2D902F97FF0B
:1016200002C08150904F2CE0959587952A95E1F75F
:10163000110F110F810F8093CD008091CC0060912C
:10164000CD00F81203C06E1509F4ECCD6B3009F033
:1016500074C08092DE009092DF00A092E000B09211
:10166000E100E0CD81E0E6DAC0907900D0907A0028
:10167000E0907B00F0907C00F2E3CF0ED11CE11CE7
:10168000F11CE9D66C157D058E059F0508F0E2CEAC
:101690006091780080E0B5D9DDCE95D98091CB00FE
:1016A000882361F08091BE009091BF00039731F4D0
:1016B0008091BD0021E082278093BD00C090790019
:1016C000D0907A00E0907B00F0907C0032E3C30E73
:1016D000D11CE11CF11CBFD66C157D058E059F0544
:1016E00008F0B8CE80E0DDD6682F80E08AD980E0AF
:1016F000A1DA8091BE009091BF009C012150310978
:101700002230310508F0A6CE019729F481E0C9D630
:10171000682F81E076D981E08DDA9CCE029709F0BE
:10172000AFCE81E087DAACCEC701B601E0D1FDCE05
:101730001F5F133009F063CF80CFC1D473CD80E633
:101740008093C601EEEBF0E01182108215821482C4
:1017500080E090E0A0E0B0E487839087A187B28723
:101760001382128284E686838EE190E094878387D9
:10177000158616861786E6E1F1E088EADF011D92FC
:101780008A95E9F7EEEDF0E0B1E0B1AF32E032AFCB
:1017900053E053AF74E074AF25E025AFA6E0A6AFE9
:1017A00097E097AFF8E0F0931E0169E060931F01A6
:1017B0004AE040932001EBE0E09321018FEF80931A
:1017C00022013093250170932601209327019093E5
:1017D000280160932901E0932A0180932B01309323
:1017E0003301509334012093350190933601F093E7
:1017F0003701409338018093390130934101509370
:1018000042012093430190934401F0934501E093FA
:1018100046018093470130934F015093500120932C
:10182000510190935201609353014093540180936E
:101830005501B0935D0150935E0120935F01909339
:101840006001F093610140936201809363013093E2
:101850006B0170936C01A0936D0190936E01609386
:101860006F01E0937001809371013093790170935F
:101870007A0120937B01A0937C0160937D014093CA
:101880007E0180937F01309387017093880190934C
:10189000890160938A0180938B0150939501209375
:1018A00096019093970140939801809399015093EA
:1018B000A3012093A401A093A5019093A6014093B6
:1018C000A7018093A8018093B00160E080E0F7C396
:1018D0008F929F92AF92BF92CF92DF92EF92FF9240
:1018E000CF93DF93EC01688179818A819B816115B7
:1018F00071058105910521F464E279ED8BE597E0AE
:101900002DE133EF41E050E0B4D049015A0127EA1C
:1019100031E440E050E094D06B017C012CEE34EFD8
:101920004FEF5FEFC501B4018BD0C60ED71EE81E86
:10193000F91EF7FE06C081E0C81AD108E10880E868
:10194000F80AC882D982EA82FB82C701B6019F7772
:10195000DF91CF91FF90EF90DF90CF90BF90AF904D
:101960009F908F9008958F929F92AF92BF92CF9247
:10197000DF92EF92FF926091600070916100809120
:10198000620090916300611571058105910521F454
:1019900064E279ED8BE597E02DE133EF41E050E033
:1019A00068D049015A0127EA31E440E050E048D0CC
:1019B0006B017C012CEE34EF4FEF5FEFC501B401FA
:1019C0003FD0C60ED71EE81EF91EF7FE06C081E006
:1019D000C81AD108E10880E8F80AC0926000D092E5
:1019E0006100E0926200F0926300C701B6019F7748
:1019F000FF90EF90DF90CF90BF90AF909F908F902F
:101A000008956093600070936100809362009093EA
:101A100063000895E199FECF9FBB8EBBE09A9927A2
:101A20008DB30895262FE199FECF1CBA9FBB8EBBC4
:101A30002DBB0FB6F894E29AE19A0FBE0196089575
:101A4000EE27FF27AA27BB2708C0A20FB31FE41F5A
:101A5000F51F220F331F441F551F969587957795C5
:101A6000679598F37040A9F7009799F7BD01CF01EA
:101A70000895052E97FB16F400940FD057FD05D05E
:101A800014D007FC02D046F408C05095409530951C
:101A900021953F4F4F4F5F4F0895909580957095DA
:101AA00061957F4F8F4F9F4F0895A1E21A2EAA1B79
:101AB000BB1BFD010DC0AA1FBB1FEE1FFF1FA217FE
:101AC000B307E407F50720F0A21BB30BE40BF50BFB
:101AD000661F771F881F991F1A9469F76095709584
:101AE000809590959B01AC01BD01CF0108955058A0
:101AF000BB27AA270ED075C166D130F06BD120F07C
:101B000031F49F3F11F41EF45BC10EF4E095E7FB46
:101B100051C1E92F77D180F3BA17620773078407A1
:101B2000950718F071F49EF58FC10EF4E0950B2E19
:101B3000BA2FA02D0B01B90190010C01CA01A0011F
:101B40001124FF27591B99F0593F50F4503E68F17A
:101B50001A16F040A22F232F342F4427585FF3CFBB
:101B6000469537952795A795F0405395C9F77EF48C
:101B70001F16BA0B620B730B840BBAF09150A1F0D5
:101B8000FF0FBB1F661F771F881FC2F70EC0BA0F5B
:101B9000621F731F841F48F4879577956795B795E3
:101BA000F7959E3F08F0B3CF9395880F08F09927DB
:101BB000EE0F979587950895D9D008F481E00895A0
:101BC0000CD00FC107D140F0FED030F021F45F3FC0
:101BD00019F0F0C0511139C1F3C014D198F3992311
:101BE000C9F35523B1F3951B550BBB27AA276217E1
:101BF0007307840738F09F5F5F4F220F331F441F26
:101C0000AA1FA9F333D00E2E3AF0E0E830D091505D
:101C10005040E695001CCAF729D0FE2F27D0660F4A
:101C2000771F881FBB1F261737074807AB07B0E889
:101C300009F0BB0B802DBF01FF2793585F4F2AF09F
:101C40009E3F510568F0B6C000C15F3FECF3983E7F
:101C5000DCF3869577956795B795F7959F5FC9F7FC
:101C6000880F911D9695879597F90895E1E0660F85
:101C7000771F881FBB1F621773078407BA0720F0FE
:101C8000621B730B840BBA0BEE1F88F7E095089567
:101C900004D06894B111D9C00895BCD088F09F5782
:101CA00090F0B92F9927B751A0F0D1F0660F771FA8
:101CB000881F991F1AF0BA95C9F712C0B13081F088
:101CC000C3D0B1E00895C0C0672F782F8827B85FD0
:101CD00039F0B93FCCF3869577956795B395D9F7E9
:101CE0003EF490958095709561957F4F8F4F9F4FF3
:101CF0000895E89409C097FB3EF4909580957095FF
:101D000061957F4F8F4F9F4F9923A9F0F92F96E947
:101D1000BB279395F695879577956795B795F111BC
:101D2000F8CFFAF4BB0F11F460FF1BC06F5F7F4F59
:101D30008F4F9F4F16C0882311F096E911C077236B
:101D400021F09EE8872F762F05C0662371F096E874
:101D5000862F70E060E02AF09A95660F771F881F43
:101D6000DAF7880F9695879597F90895990F0008E7
:101D7000550FAA0BE0E8FEEF16161706E807F9075D
:101D8000C0F012161306E407F50798F0621B730BF8
:101D9000840B950B39F40A2661F0232B242B252B79
:101DA00021F408950A2609F4A140A6958FEF811D1C
:101DB000811D089597F99F6780E870E060E00895BD
:101DC0009FEF80EC089500240A9416161706180653
:101DD0000906089500240A9412161306140605062F
:101DE0000895092E0394000C11F4882352F0BB0FC0
:101DF00040F4BF2B11F460FF04C06F5F7F4F8F4F23
:101E00009F4F089557FD9058440F551F59F05F3F5D
:101E100071F04795880F97FB991F61F09F3F79F00C
:101E200087950895121613061406551FF2CF46958E
:101E3000F1DF08C0161617061806991FF1CF869510
:101E40007105610508940895E894BB2766277727F4
:101E5000CB0197F908958ADF08F48FEF08950AD02F
:101E6000C0CFB1DF28F0B6DF18F0952309F0A2CF7C
:101E7000A7CFEBCFC7DFA8F39923D9F35523C9F335
:101E8000950F50E0551FAA27EE27FF27BB270024F8
:101E90000894679520F4E20FF31FB41F0A1E220F67
:101EA000331F441FAA1F6695A9F7779530F4F30FE7
:101EB000B41F0A1E121E08F46395330F441FAA1F95
:101EC000221F769599F7879520F4B40F0A1E121EEB
:101ED000631F440FAA1F221F331F8695A9F7862F61
:101EE000712D602D11249F5750408AF0E1F0882316
:101EF0004AF0EE0FFF1FBB1F661F771F881F915010
:101F00005040A9F79E3F510570F054CF9ECF5F3FE0
:101F1000ECF3983EDCF3869577956795B795F79542
:101F2000E7959F5FC1F7FE2B880F911D96958795CA
:101F300097F908950024552704C0080E591F880FEB
:101F4000991F009729F076956795B8F37105B9F751
:101F5000802D952F0895AA1BBB1B51E107C0AA1F16
:101F6000BB1FA617B70710F0A61BB70B881F991F3A
:101F70005A95A9F780959095BC01CD010895EE0F73
:0E1F8000FF1F0590F491E02D0994F894FFCF17
:041F8E00010000004E
:00000001FF
